:10000000020484008F828E83E0540100000070F8A7
:100010002278FFE4F6D8FD020541BB010689828AF9
:1000200083E0225002E722BBFE02E32289828A8318
:10003000E49322BB010689828A83F0225002F722D0
:10004000BBFE01F322C5F0F8A3E028F0C5F0F8E507
:1000500082158270021583E038F022BB010A898282
:100060008A83F0E5F0A3F0225006F709A7F01922E1
:10007000BBFE06F3E5F009F31922EF2BFFEE3AFE83
:10008000ED39FDEC38FC22E88FF0A4CC8BF0A42CE9
:10009000FCE98EF0A42CFC8AF0EDA42CFCEA8EF096
:1000A000A4CDA8F08BF0A42DCC3825F0FDE98FF07D
:1000B000A42CCD35F0FCEB8EF0A4FEA9F0EB8FF074
:1000C000A4CFC5F02ECD39FEE43CFCEAA42DCE35FC
:1000D000F0FDE43CFC2275F008758200EF2FFFEE86
:1000E00033FECD33CDCC33CCC58233C5829BED9A64
:1000F000EC99E58298400CF582EE9BFEED9AFDECC2
:1001000099FC0FD5F0D6E4CEFBE4CDFAE4CCF9A807
:100110008222B800C1B90059BA002DEC8BF084CF0F
:10012000CECDFCE5F0CBF97818EF2FFFEE33FEEDE6
:1001300033FDEC33FCEB33FB10D703994004EB9910
:10014000FB0FD8E5E4F9FA227818EF2FFFEE33FE23
:10015000ED33FDEC33FCC933C910D7059BE99A4058
:1001600007EC9BFCE99AF90FD8E0E4C9FAE4CCFB70
:100170002275F010EF2FFFEE33FEED33FDCC33CCC4
:10018000C833C810D7079BEC9AE899400AED9BFD4D
:10019000EC9AFCE899F80FD5F0DAE4CDFBE4CCFA60
:1001A000E4C8F922EF4BFFEE4AFEED49FDEC48FCB6
:1001B00022EB9FF5F0EA9E42F0E99D42F0E89C4573
:1001C000F022E8600FECC313FCED13FDEE13FEEF1D
:1001D00013FFD8F122E8600FEFC333FFEE33FEEDDB
:1001E00033FDEC33FCD8F122BB010789828A8302FC
:1001F00002225005E9F80202CFBBFE05E9F802022F
:10020000DB89828A830202E7BB010789828A830233
:10021000023A5005E9F80202F7BBFE05E9F80203CD
:100220000322E0FCA3E0FDA3E0FEA3E0FF22E0F850
:10023000A3E0F9A3E0FAA3E0FB22ECF0A3EDF0A326
:10024000EEF0A3EFF022E0FBA3E0FAA3E0F922EB4B
:10025000F0A3EAF0A3E9F022D083D082F8E493700F
:1002600012740193700DA3A393F8740193F582881F
:1002700083E4737402936860EFA3A3A380DFE509AE
:100280002582F582E5083583F583B5080485820962
:100290002210AF06858209F50822858209F508D269
:1002A000AF22EC8EF0A4CCC5F0CCCDF8EFA4CEC537
:1002B000F02DFDE43CFCE8A42EC8C5F03DFDE43C77
:1002C000FCEFA4FFE5F028FEE43DFDE43CFC22E663
:1002D000FC08E6FD08E6FE08E6FF22E2FC08E2FD77
:1002E00008E2FE08E2FF22E493FC740193FD74022D
:1002F00093FE740393FF22ECF608EDF608EEF60881
:10030000EFF622ECF208EDF208EEF208EFF2227FAF
:10031000947E017D007C0090005F12023A90512093
:10032000E0FFEF5480FFEFF0905122E0FFEF54F038
:10033000FF90005EEFF090005EE0FFEF440FFF9053
:100340005122EFF0905123E0FFEF54F0FF90005E58
:10035000EFF090005EE0FF905123EFF0905124E029
:10036000FFEF54F0FF90005EEFF090005EE0FF9032
:100370005124EFF0905120E0FFEF54DFFFEFF090B9
:100380005120E0FFEF4440FFEFF07F007E001210AD
:1003900000905120E0FFEF4410FFEFF07F017E005E
:1003A000121000905121E0FF90005EEFF09051207C
:1003B000E0FFEF54EFFFEFF07F007E00121000909F
:1003C000005EE0FFEF5408FF90005EEFF0905120D8
:1003D000E0FFEF4410FFEFF07F017E00121000906D
:1003E0005120E0FFEF54EFFFEFF090005EE0FFEFF1
:1003F00070077F0A7E0012100090005F1202227BBD
:10040000FF7AFF79FF78FF12007A90005F12023ABC
:1004100090005EE0FFEF601290005F120222D3EFC7
:100420009400EE9400400302038A905120E0FFEF15
:1004300054BFFFEFF0905120E0FFEF5480FFEFF04A
:10044000905122E0FFEF54F0FFEFF0905123E0FFD6
:10045000EF54F0FF90005EEFF090005EE0FFEF449D
:100460000FFF905123EFF0905124E0FFEF54F0FF85
:1004700090005EEFF090005EE0FFEF440FFF9051C0
:1004800024EFF02275930078007583467582E8E0CA
:100490004401F0009046ECE0F99046FAE0FAB90326
:1004A000225420B40012B8001AEA901FFFF0740121
:1004B000901FFEF09046F6F0901FFEE06005901F42
:1004C000FFE0FA90480074C0F07581099076BCE4B2
:1004D000F0A3F0A3F0A3F0907010F0907019F090DA
:1004E0007020F09076007410F0907604E4F0A3F0A1
:1004F000A3F0A3F09078007800087400F0A37408CB
:10050000F0E8B8040274FFA3F0A37422F0A374BC53
:10051000F0A37476F0A3E4F0A3E81475F008A4F057
:10052000A3B804D59070107401F0907014F07E7030
:100530007F18120004907010F0EA90006DF0020035
:100540001175081F7509FD1205CD020588020942C3
:10055000E493A3F8E493A34003F68001F208DFF4E8
:100560008029E493A3F85407240CC8C333C4540F60
:100570004420C8834004F456800146F6DFE4800B33
:10058000010204081020408090102DE47E01936049
:10059000BCA3FF543F30E509541FFEE493A3600160
:1005A0000ECF54C025E060A840B8E493A3FAE493CA
:1005B000A3F8E493A3C8C582C8CAC583CAF0A3C878
:1005C000C582C8CAC583CADFE9DEE780BE7B007A80
:1005D0004679E8121158EF4405FD7B007A4679E828
:1005E0001211641207987B017A507903121158EFA7
:1005F0004402FD7B017A5079031211647B017A5029
:100600007913121158EF4402FD7B017A50791312CD
:1006100011649043A0E0FFEF4440FF9043A0EFF04F
:100620009043C2E0FFEF4410FF9043C2EFF07B081D
:100630007A007900C003C002C0017B007A517922A0
:1006400090004812024FD001D002D0037F087E00F4
:10065000120F6C904322E0FFEF4408FF904322EF1B
:10066000F09046ECE0FFEFC3940550069046897485
:100670003AF090480074C0F01206B59048007480BB
:10068000F0120F367B007A4379A0C003C002C0018C
:100690007B007A4379B090004812024FD001D0021B
:1006A000D0037F0E7E00120F6C9043B0E0FFEF543A
:1006B000FDFFEFF0229043007402F09040007408B8
:1006C000F09042007403F07B0C7A01790812115803
:1006D0009046A1EFF07B007A4279227D087C0012DF
:1006E000112F7B007A4279207D517C1212112F90BC
:1006F0000047E4F07F197E007D007C0090004312EB
:10070000023A900043120222D3EF9400EE9400408C
:100710004E900047E0FFEF64036044904225E0FF05
:10072000EF5401FF7E00900047E0FEEE25E0FEEE74
:100730004FFFEF5403FF900047EFF07FE07E017D15
:10074000007C00120E009000431202227BFF7AFF11
:1007500079FF78FF12007A90004312023A80A3904A
:100760000043120222EF4E70057F0312111D7B0021
:100770007A4079047D007C0112112F9040047407A7
:10078000F0904006E4F09040087448F0904004E493
:10079000F09040017402F0227F007E007D007C001A
:1007A00090007712023A9076007410F090701074F6
:1007B00001F0907019E4F07B027A7879007D707C0A
:1007C000001211319078027401F090780374A3F054
:1007D0007B027A787904C003C002C0017BFF7A11E2
:1007E0007985AF01AE02AD037C00EF54FFFFEE54FC
:1007F000FFFEED5400FDEC5400FCAD07AC06D0014B
:10080000D002D0031211317B027A7879067D087C00
:10081000781211317B027A7679047D107C001211F6
:10082000317B027A7679067D007C0012113190705E
:10083000297405F09070397409F09070147401F007
:10084000907018E0FFEF5401FF7E00EF4E70F190C2
:100850007028E0FFEF5401FF7E00EF4E70F19070C2
:1008600038E0FFEF5401FF7E00EF4E70F122900060
:100870004612023A900056740AF0900056E0FF7457
:100880004B2FF582E43400F583E4F0900056E01439
:10089000F0900046120222C3EF940AEE94004057F3
:1008A0007B0A7A0079007800900046120222120139
:1008B00012AC00AD01AE02AF03EF2430FF90004A4E
:1008C000EFF090004AE0FF900056E0FE744B2EF5EA
:1008D00082E43400F583EFF09000461202227B0A96
:1008E0007A007900780012011290004612023A90C4
:1008F0000056E014F0809A7B0A7A00790078009024
:100900000046120222120112AC00AD01AE02AF038A
:10091000EF2430FF90004AEFF090004AE0FF900093
:1009200056E0FE744B2EF582E43400F583EFF09030
:100930000056E0FF744B2FF9E43400FA7B01120DEE
:1009400068221210F37F327E007D007C00120B9033
:100950007B017A007944120E92900043EFF07D0003
:100960007F00120D117BFF7A1079AB120D68900099
:1009700044E0FEA3E0FFC3EE64809480400B7BFF65
:100980007A1079B3120D6880277BFF7A1079B5123F
:100990000D68900044E0FEA3E0FFEFF4FFEEF4FEEC
:1009A000EF2401FFEE3400FE900044EEF0A3EFF0E0
:1009B000900044E0FEA3E0FFE4FCFD12086E7BFF24
:1009C0007A1079B7120D687F0712113E7BFF7A10FB
:1009D00079B9120D687D007F01120D117BFF7A102D
:1009E00079BB120D68900043E0FF121059020945CF
:1009F0002290005112024F904722E0FFEF5402FF75
:100A00007E00EF4E706D904722E0FFEF1313543FCE
:100A1000FFEF70577B017A0079547D02120BF6EFDD
:100A20006402703F900054E0FFEFB4011590005550
:100A3000E0FF7E00900051120246EE8FF012005B44
:100A4000801A900055E0FF7E00C3E49FFFE49EFE05
:100A5000900051120246EE8FF012005B900056E4B7
:100A6000F0801690005674FFF0800E9000567407C8
:100A7000F080069000567410F0900056E0FFEF648E
:100A80000760031210DD900056E0FF227F287E00F1
:100A90007D007C00120B907F03120DB67F057E0057
:100AA0007D007C00120B907F03120DB67F0F7E003D
:100AB0007D007C00120B907F03120DB67F017E003B
:100AC0007D007C00120B907F02120DB67F057E0028
:100AD0007D007C00120B907F06120F007F0E120F1C
:100AE000007F2C120F007F08120F007F01120F00F1
:100AF0007F0C120F007F03120F007F057E007D0028
:100B00007C00120B907BFF7A1179F5120E4B22902C
:100B1000004B12024F120FA0900050EFF0900050C7
:100B2000E0FFEF6407706390004E741FF0A3744001
:100B3000F090004EE0FEA3E0FFD3EF9400EE9400AF
:100B40004048900050E0FFEF64076013904722E0B8
:100B5000FFEF5402FF7E00EF4E6004802D8017905F
:100B60000050E0FFEFB4070E90004B12024612094E
:100B7000F1900050EFF07F0A7E0012100090004EBE
:100B800074FF75F0F612004580A7900050E0FF2238
:100B900090FFFC12027E12023A85088385098212B8
:100BA0000222D3EF9400EE9480402F90006E120248
:100BB00022120E00850883850982C083C08212023A
:100BC00022EF2400FFEE3480FEED34FFFDEC34FF15
:100BD000FCD082D08312023A80BF900064120222BD
:100BE00085088385098212022E120087120E00905A
:100BF000000412027E2290005712024F90005AED1C
:100C0000F090005BE4F090005AE0FF90005BE0FEA3
:100C1000EEC39F5040904722E0FFEF5401FF7E005B
:100C2000EF4E6003D38001C340097F017E001210A4
:100C30000080E2904720E0FF9000571202469000AB
:100C40005BE0FEE92EF9E43AFAEF12003390005B24
:100C5000E004F080B190005BE0FF2290005EEFF0D6
:100C6000905120E0FFEF4420FFEFF0905120E0FF93
:100C7000EF54BFFFEFF07F007E0012100090512074
:100C8000E0FFEF54F0FFEFF0905120C083C082E00E
:100C9000FF90005EE0FEEE4410FEEF4EFFD082D0EB
:100CA00083EFF07F017E00121000905120E0FFEFF3
:100CB00054EFFFEFF022900052EFF09000537407D2
:100CC000F0904722E0FFEF5402FF7E00EF4E6035C8
:100CD00090472074B6F090472074E1F0904720745C
:100CE0000EF0904722E0FFEF5402FF7E00EF4E70BF
:100CF0000C900052E0FF904720EFF0800E900053E0
:100D00007409F080069000537404F0900053E0FFE3
:100D100022900046EFF0900047EDF0900046E0FF93
:100D2000EF1202580D34000D41010D4E020D5B0310
:100D300000000D67900047E0FFEF2480FF120F00D6
:100D400022900047E0FFEF24C0FF120F0022900026
:100D500047E0FFEF2494FF120F0022900047E0FFCE
:100D6000EF24D4FF120F002290005712024F900080
:100D70005A7401F090005712024612001AFF9000B8
:100D80005BEFF090005BE0FFEF602A90005BE0FF1C
:100D9000120ECA90005712024690005AE0FFE92F47
:100DA000F9E43AFA12001AFF90005BEFF090005A53
:100DB000E004F080CE2290004CEFF0905120E0FF54
:100DC000EF549FFFEFF0905120E0FFEF54F0FFEF62
:100DD000F0905120C083C082E0FF90004CE0FEEE16
:100DE0004410FEEF4EFFD082D083EFF07F017E00F3
:0F0DF000121000905120E0FFEF54EFFFEFF022C0
:100E0000EC4D4E700D78FCEF24E950032840FD2294
:100E1000000078C5904800E0C403035403900E47D7
:100E20009325E0240FF404FBEF28FF78FFEE38FE53
:100E3000ED38FDEC38FC50D7EF2BFFEE38FEED38E7
:100E4000FDEC38FC40F22205020304900046120239
:100E50004F12030F7F40120F00900049E4F0900002
:100E600049E0FFEFC39440502090004612024690A4
:100E70000049E0FFE92FF9E43AFA12001AFF120ED6
:100E8000CA900049E004F080D512030F7F80120F52
:100E9000002290004612024F90004A7402F0900027
:100EA0004AE0FFEF601E900046120246120B0F90C0
:100EB0000049EFF0900049E0FFEF700890004AE031
:100EC00014F080DA900049E0FF2290005CEFF0120D
:100ED000030F90005CE0FFEFC4540FFF90005DEF44
:100EE000F090005DE0FF120C5B90005CE0FFEF54BF
:100EF0000FFF90005DEFF090005DE0FF120C5B22B1
:100F000090004AEFF012030F90004AE0FFEFC45444
:100F10000FFF90004BEFF090004BE0FF120DB690EA
:100F2000004AE0FFEF540FFF90004BEFF090004BB2
:100F3000E0FF120DB6227B0C7A0179CF1211589086
:100F40000043EFF0900043E0FFEF5407FF90586E2E
:100F5000EFF0900043E0FFEFC4540FFFEF540FFF9A
:100F600090586FEFF09058767444F022758600EF39
:100F70004E6027EF60010E759300900048E0F595F4
:100F8000A3E0F585A3E0F5848B938A838982E0A3AF
:100F90000586F0A31586DFF6DEF4E4F593F59522D9
:100FA00090005174FFF0121084120FCFEF70147F75
:100FB00001120CB6EFB407069000517407F012103E
:100FC000DD80069000517404F0900051E0FF229003
:100FD00000527404F0121108900053EFF090007D5D
:100FE000E0FFEF700B90007D7401F0900052E4F090
:0E0FF000900053E0FF1210C5900052E0FF2267
:10100000EEFA900068E0F88FF0A4FFAEF0E88AF006
:10101000A42EFEE5F03400FDEF24C9FF78FFEE3882
:10102000FEED38FDE438FC5003020E002241007C46
:101030000041007B00440069016E360044006400FA
:10104000005DC04100681844006E2EE000004100C1
:101050007D0043007200000000900046EFF0900019
:1010600046E0FFEFC4540FFFEF90123593FF1211CB
:101070003E900046E0FFEF540FFFEF90123593FFD4
:1010800012113E22121108900052EFF09043A0E09E
:10109000FFEF4408FFEFF09043B0E0FFEF4408FF9C
:1010A000EFF0900052E0FF1210C52254656D7020E1
:1010B0003D20002B002D0020004300537461747507
:1010C00073203D2000EF54016004D2AF8002C2AF14
:1010D000EF5402FF9044F4E054FD4FF02212110847
:1010E000900057EFF090007DE4F0900057E0FF1281
:1010F00010C52290007BE0FFEF7009120A8C90006F
:101100007B7401F012114C229044F4E0F84402F098
:10111000E85402FF10AF012274014FFF22900048F3
:10112000EFF0900048E0FF900048EFF080FE228B47
:10113000938A838982EDF0A3ECF0759300229000EE
:1011400047EFF0900047E0FF120ECA227F0C120F0B
:101150000090007C7401F0228B938A838982E07571
:101160009300FF228B938A838982EDF0759300228E
:10117000010000000000000001000000000001006C
:101180000100000001000823021170760800082306
:1011900003117876100005230411807020000523C8
:1011A000FE1180703000202206007751000040229E
:1011B000070077513000102208007751C00010223C
:1011C000FE007751F00FFF220A0077000000012295
:1011D0000B00770FFF0800220C007714000A002292
:1011E0000D007740000200220E00774C0000202204
:1011F000FE00775000000E0808080E0000000A0AE2
:101200000404040000000E0A0E08080000000E0A84
:101210000C0A0A0000000E080C080E0000000E0860
:101220000E020E0000000E080E020E00000C12123C
:101230000C00000000303132333435363738394154
:05124000424344454655
:00000001FF
