:400000000010002011000000290200002902000008B500F00BF9C04610B5124C23688022D20213432360182000F0D6F922680E4B134023600D4A0E4B1A6010220D4B1A6097
:40004000822212060C4B1A600C4A0D4B1A6009200C4900F07FF9092000F070F900220A4B1A6010BD00010B40FFFFFBFF0600008004010B401C02024008010B401700008040
:4000800000000240E90500000C020B4010B572B6002410E0244863001A195200821891881B195B001A5AC31858880004104300F01FF90134E4B2012CECD91B49081C0C3011
:4000C000183100F0FBF8E022D202184B1A60EE221202174B1A6099231B04164A1360C0218904154A1160154A1360154B197802220A431A70134802783C218A4328390A43CA
:400100000270197816220A431A7010230E4A13600E4A1360D82212010D4B1A60FFF77CFF00F0FCF810BDC046440C0000000001400C00014000500F4008500F4030500F40EA
:4001400000700F4001700F4000000440180004400803044010B5064C2378002B07D1054B002B02D0044800E000BF0123237010BDE000002000000000400C000008B5084B44
:40018000002B03D00748084900E000BF07480368002B00D108BD064B002BFBD09847F9E700000000400C0000E4000020C80000200000000010B5084B1C68E30609D50120C5
:4001C00000F074FB054B5880054A116810230B431360044B1C6010BD1C021A4024010020FC00002010021A4008B500F045FB00F053FB0A4800F0E2FB62B600F073FB084BCC
:400200001B68DB06F9D5064A136810218B431360044B588800B200F075FBEEE7B5010000FC00002024010020FEE7C04670B50F4E0F4D13E029686B68AC68002202E001C920
:4002400001C30432A242FAD1E868002202E0002102C304328242FAD11035013E002EE9D100F0C0FCFFF7C0FFFEE7C04601000000D00C000008B500230AE0032B03D89A00D4
:400280000A49505800E00A4899000A4A885001332F2BF2D9FFF7FAFE0022074B1A608022D205116801230B43136008BD000000002902000000000020C0000020F0B5002586
:4002C000002711E0BB00C658F3B2FF22964308E06A008A181478A419527822700135013BDBB2002BF4D10137022FEBD9F0BDC04608B50A1C002100F09BFC08BD064B1B68E2
:40030000002803D080221206134301E05B005B08014A13607047C04680031A4008B5B0231B03044A1360044A13600120FFF7E6FF08BDC04600031A4040031A401F23184030
:400340001E3B8340181C014B1860704700E100E001BE704738B5041C0D1C1F2802D90020FFF7F6FFA400034B9C4664442068256038BDC0464000002070B5041C0E1E032E92
:4003800002D90020FFF7E4FF1F2C02D90020FFF7DFFF03252540ED00063500F027FBA408A400074B9C46644423680322AA409343AE40351C1D43256000F01CFB70BDC0468E
:4003C00000E400E008B5034B1B7A584300F004FB08BDC046CC000020F0B557464E46C0B483B0041C00F002FB0190E71E2D2F74D83F4B1B78DBB2A34208D33E4B1B78DBB27D
:400400009A463D4B1B78DBB2994631E03B4B1B78DBB2A34208D33A4B1B78DBB29A46394B1B78DBB2994623E0374B1B78DBB2A34208D3364B1B78DBB29A46354B1B78DBB250
:40044000994615E0334B1B78DBB2A34208D3324B1B78DBB29A46314B1B78DBB2994607E02F4B1B78DBB29A462E4B1B78DBB299462D4BDE5D2F2E09D92A2C07D919222B4BA0
:400480001A60052000F0A8FA192503E0274B1D683F231D40AE4206D2234BDA5D234B1A60052000F099FA1F4B9C4664442378DBB21F4A13601F4B52461A601F4B4A461A604F
:4004C0000520FFF77FFFAE420AD9174BDA5D174B1A60052000F080FA02E00020FFF738FF019800F087FA03B00CBC91469A46F0BDC0F1FF0FC1F1FF0FC2F1FF0FC3F1FF0F72
:40050000C4F1FF0FC5F1FF0FC6F1FF0FC7F1FF0FC8F1FF0FC9F1FF0FCAF1FF0FCBF1FF0FCCF1FF0FCDF1FF0F700C00002CFF0B4028FF0B401CFF0B4020FF0B40034B1868EE
:40054000C0231B02184000D00120704700010B4008B500F04BFA044A1368C02109020B43136000F047FA08BD00010B4010B500F03DFA08490A68084B1A408024E40122433B
:400580000A600A6813408022120213430B6000F031FA10BD00010B40FF3FFFFF70B5061C00F024FA041CFFF7C9FF002803D0FFF7DDFF012500E000250848331C0340084AC6
:4005C000106808490840184310601368012D01D1FFF7BEFF201C00F00DFA70BD0404040010020B40FBFBFBFF10B5244B1B685B0715D5234B1B685B070ED5224B996904206C
:4006000001401F4C22688A4322609A6982439A61DB68002B00D098470420FFF7BFFF174B1B685B0518D5164B1B685B0510D5154B99698022D2001140114802688A43026009
:400640009969114A0A409A611B69002B00D098478020C000FFF7A2FF084B1B685B030CD5074B1B685B0304D5064B5B69002B00D098478020C002FFF791FF10BD10020B4061
:40068000DC00002004010020FFFBFFFF10B50E200321FFF771FE0E205249FFF75BFE0122514B1A60514B1B68002B01DA504900E05049514A13680B431360504A504B1A6097
:4006C000504A514B1A608022D205504B1A60504B504A1360504A1360504B1A68802149020A431A604E4A13680B43136000234D4A13604D4A136011224C4B1A600F3A4C4B08
:400700001A604C490A684C4B1340012213430B60002264E0494993005858DC239B0103408918097A0B43002A1CD19100444CA44661440B60C30707D53A49086880235B0214
:4007400093401B0C03430B6093003C495B589B0721D53549086880235B0293401B0C03430B6018E08021C9050B4336490B60930032495B58DB0704D52C4908682023034349
:400780000B6093002D495B589B0704D527490868402303430B609300284959588B0502D58020400001E080204001CB0504D45300002425495C5203E05300002422495C5237
:4007C000224B43438021C9008C466344D917490DCB18DB121BB290001D4943500132012A98D910BDF908000020001A4080031A40402010134020001300001A40FC000080F7
:4008000004001A400000FF0F18001A401C001A400400040010001A4014001A4000031A4040031A4028021A4038021A4018021A40000F1A4030001A40FFFFFFDFA00C000083
:4008400080001A4080021A4030010020102700002801002008B5074B1B68002B08DB054A1368802109060B4313600A20FFF7AAFD08BDC04600001A4008B5064B1B78002B5E
:4008800004D1FFF703FF0122024B1A70FFF7E2FF08BDC04620010020034A1368802149020B4313607047C04604001A4010B5041E012C02D90020FFF74BFD002C07D1A40009
:4008C000064B9C46644420680004000C03E0044B18680004000C00B210BDC04680011A4090021A40034A1368802109060B4313607047C04680021A40014B1A681A607047A6
:4009000010021A4010B5164B1A8812B2154B19880CB2604392028418134B9C420BDDC823DB031B1BD817000FC0180011C000552100F066F80AE0A0239B03E318D817000F5B
:40094000C0180011C000372100F05AF823188022120294466344D817000CC018001410BD66F1FF0F64F1FF0FFFFF0E00014B98677047C0460000002010B5041C00F036F80F
:40098000044A1168044B0B40A4051C43146000F031F810BD0CE400E0FFFF3FFF8022D201014B1A607047C04600E100E08022D201014B1A607047C04680E100E010B5041C91
:4009C000FFF7F4FF201CFFF7D1FF0320FFF7D4FFFFF7E4FF10BDC0460230800804D0C0460138FDD1C046C046C0467047EFF3108072B6704780F310887047C046C046C046EB
:400A000003460B437FD4002243088B4274D303098B425FD3030A8B4244D3030B8B4228D3030C8B420DD3FF22090212BA030C8B4202D31212090265D0030B8B4219D300E009
:400A4000090AC30B8B4201D3CB03C01A5241830B8B4201D38B03C01A5241430B8B4201D34B03C01A5241030B8B4201D30B03C01A5241C30A8B4201D3CB02C01A5241830A86
:400A80008B4201D38B02C01A5241430A8B4201D34B02C01A5241030A8B4201D30B02C01A5241CDD2C3098B4201D3CB01C01A524183098B4201D38B01C01A524143098B4247
:400AC00001D34B01C01A524103098B4201D30B01C01A5241C3088B4201D3CB00C01A524183088B4201D38B00C01A524143088B4201D34B00C01A5241411A00D201465241D0
:400B0000104670475DE0CA0F00D04942031000D34042534000229C4603098B422DD3030A8B4212D3FC22890112BA030A8B420CD3890192118B4208D3890192118B4204D3CD
:400B400089013AD0921100E08909C3098B4201D3CB01C01A524183098B4201D38B01C01A524143098B4201D34B01C01A524103098B4201D30B01C01A5241C3088B4201D3C8
:400B8000CB00C01A524183088B4201D38B00C01A5241D9D243088B4201D34B00C01A5241411A00D20146634652415B10104601D34042002B00D54942704763465B1000D39A
:400BC000404201B5002000F00BF802BD0029F8D003B5FFF715FF0EBC4243891A1847C0467047C0460E4B70B500251E1C0D4CE41AA410A54204D0AB00F35898470135F8E797
:400C000000F054F8084B00251E1C084CE41AA410A54204D0AB00F35898470135F8E770BDB80C0000B80C0000B80C0000C00C0000031C8218934202D019700133FAE7704721
:400C40000000000000300F40000400400F40000404300F4002310F4004400F4030013E0158045F011B02870267808740D880E210030405060708090A0B0C0E0F101112134E
:400C80001415161718191B1C1D1E1F2021222325262728292A2B2E2F3031323334350000000400000004000073700000F8B5C046F8BC08BC9E4670477D010000750200004C
:400CC000F8B5C046F8BC08BC9E46704755010000E00C0000C80000201800000058000000000000000000E02EC05D00001800000000366E01040404000000000000000000A0
:400D000000000000000000000000000000000000000000000000000000000000000000000000000000000000000000000000000000000000000000000000000000000000B3
:400D40000000000000000000000000000000000000000000000000000000000000000000000000000000000000000000000000000000000000000000000000000000000073
:400D80000000000000000000000000000000000000000000000000000000000000000000000000000000000000000000000000000000000000000000000000000000000033
:400DC00000000000000000000000000000000000000000000000000000000000000000000000000000000000000000000000000000000000000000000000000000000000F3
:0200000490303A
:020000002AD103
:0200000490402A
:200000000000000000000000000000000000000000000000000000000000000000000000E0
:0200000490501A
:0C000000000204C81193110104CC3C6400
:0200000490600A
:0100000001FE
:00000001FF