:400000000010002011000000690200006902000008B500F02BF9C04610B5124C23688022D20213432360182000F0F6F922680E4B134023600D4A0E4B1A6010220D4B1A60D7
:40004000822212060C4B1A600C4A0D4B1A6009200C4900F09FF9092000F090F900220A4B1A6010BD00010B40FFFFFBFF0600008004010B401C02024008010B401700008000
:4000800000000240290600000C020B4010B572B60122274B1A70002410E0264863001A195200821891881B195B001A5AC31858880004104300F03CF90134E4B2012CECD956
:4000C0001C49081C0C302C3100F018F9E022D202194B1A60EE221202184B1A6099231B04174A1360174A13600122174B1A600132164B1A60164B19780A431A7015480278F8
:400100003C218A4328390A430270197816220A431A701023104A1360104A1360D82212010F4B1A60FFF778FF00F018F910BDC0461C700F409C0D0000000001400C000140D4
:4001400000500F4030500F402000004000800F4000700F4001700F4000000440180004400803044010B5064C2378002B07D1054B002B02D0044800E000BF0123237010BD03
:40018000E000002000000000980D000008B5084B002B03D00748084900E000BF07480368002B00D108BD064B002BFBD09847F9E700000000980D0000E4000020C80000203B
:4001C0000000000008B5074A138801339BB21380FA229200934204D100F0A4FB0022014B1A8008BDFC00002010B5084B1C68E30609D5012000F07AFB054B5880054A516859
:4002000010230B435360044B1C6010BD1C021A4028010020FC00002010021A4008B500F047FC0D4800F076FC00F046FB00F054FB0A4800F0E3FB62B6094B5B68DB06FBD592
:40024000074A536810218B435360064B588800B200F078FBF0E7C046C5010000E9010000FC00002028010020FEE7C04670B50F4E0F4D13E029686B68AC68002202E001C986
:4002800001C30432A242FAD1E868002202E0002102C304328242FAD11035013E002EE9D100F04CFDFFF7BAFFFEE7C04601000000DC0E000008B500230AE0032B03D89A00FF
:4002C0000A49505800E00A4899000A4A885001332F2BF2D9FFF7DAFE0022074B1A608022D205116801230B43136008BD000000006902000000000020C0000020F0B5002526
:40030000002711E0BB00C658F3B2FF22964308E06A008A181478A419527822700135013BDBB2002BF4D10137072FEBD9F0BDC04608B50A1C002100F027FD08BD064B1B680F
:40034000002803D080221206134301E05B005B08014A13607047C04680031A4008B5B0231B03044A1360044A13600120FFF7E6FF08BDC04600031A4040031A401F231840F0
:400380001E3B8340181C014B1860704700E100E001BE704738B5041C0D1C1F2802D90020FFF7F6FFA400034B9C4664442068256038BDC0464000002070B5041C0E1E032E52
:4003C00002D90020FFF7E4FF1F2C02D90020FFF7DFFF03252540ED00063500F0B3FBA408A400074B9C46644423680322AA409343AE40351C1D43256000F0A8FB70BDC04636
:4004000000E400E008B5034B1B7A584300F090FB08BDC046CC000020F0B557464E46C0B483B0041C00F08EFB0190E71E2D2F74D83F4B1B78DBB2A34208D33E4B1B78DBB224
:400440009A463D4B1B78DBB2994631E03B4B1B78DBB2A34208D33A4B1B78DBB29A46394B1B78DBB2994623E0374B1B78DBB2A34208D3364B1B78DBB29A46354B1B78DBB210
:40048000994615E0334B1B78DBB2A34208D3324B1B78DBB29A46314B1B78DBB2994607E02F4B1B78DBB29A462E4B1B78DBB299462D4BDE5D2F2E09D92A2C07D919222B4B60
:4004C0001A60052000F034FB192503E0274B1D683F231D40AE4206D2234BDA5D234B1A60052000F025FB1F4B9C4664442378DBB21F4A13601F4B52461A601F4B4A461A60F5
:400500000520FFF77FFFAE420AD9174BDA5D174B1A60052000F00CFB02E00020FFF738FF019800F013FB03B00CBC91469A46F0BDC0F1FF0FC1F1FF0FC2F1FF0FC3F1FF0F17
:40054000C4F1FF0FC5F1FF0FC6F1FF0FC7F1FF0FC8F1FF0FC9F1FF0FCAF1FF0FCBF1FF0FCCF1FF0FCDF1FF0F7C0E00002CFF0B4028FF0B401CFF0B4020FF0B40034B1868A0
:40058000C0231B02184000D00120704700010B4008B500F0D7FA044A1368C02109020B43136000F0D3FA08BD00010B4010B500F0C9FA08490A68084B1A408024E401224357
:4005C0000A600A6813408022120213430B6000F0BDFA10BD00010B40FF3FFFFF70B5061C00F0B0FA041CFFF7C9FF002803D0FFF7DDFF012500E000250848331C0340084A6E
:40060000106808490840184310601368012D01D1FFF7BEFF201C00F099FA70BD0404040010020B40FBFBFBFF10B5244B1B685B0715D5234B1B685B070ED5224B996904209F
:4006400001401F4C22688A4322609A6982439A61DB68002B00D098470420FFF7BFFF174B1B685B0518D5164B1B685B0510D5154B99698022D2001140114802688A430260C9
:400680009969114A0A409A611B69002B00D098478020C000FFF7A2FF084B1B685B030CD5074B1B685B0304D5064B5B69002B00D098478020C002FFF791FF10BD10020B4021
:4006C000DC00002008010020FFFBFFFF10B50E200321FFF771FE0E205249FFF75BFE0122514B1A60514B1B68002B01DA504900E05049514A13680B431360504A504B1A6053
:40070000504A514B1A608022D205504B1A60504B504A1360504A1360504B1A68802149020A431A604E4A13680B43136000234D4A13604D4A136011224C4B1A600F3A4C4BC7
:400740001A604C490A684C4B1340012213430B60002264E0494993005858DC239B0103408918097A0B43002A1CD19100444CA44661440B60C30707D53A49086880235B02D4
:4007800093401B0C03430B6093003C495B589B0721D53549086880235B0293401B0C03430B6018E08021C9050B4336490B60930032495B58DB0704D52C4908682023034309
:4007C0000B6093002D495B589B0704D527490868402303430B609300284959588B0502D58020400001E080204001CB0504D45300002425495C5203E05300002422495C52F7
:40080000224B43438021C9008C466344D917490DCB18DB121BB290001D4943500132012A98D910BD3909000020001A4080031A40402010134020001300001A40FC00008075
:4008400004001A400000FF0F18001A401C001A400400040010001A4014001A4000031A4040031A4028021A4038021A4018021A40000F1A4030001A40FFFFFFDFAC0E000035
:4008800080001A4080021A4034010020102700002C01002008B5074B1B68002B08DB054A1368802109060B4313600A20FFF7AAFD08BDC04600001A4008B5064B1B78002B16
:4008C00004D1FFF703FF0122024B1A70FFF7E2FF08BDC04624010020034A1368802149020B4313607047C04604001A4010B5041E012C02D90020FFF74BFD002C07D1A400C5
:40090000064B9C46644420680004000C03E0044B18680004000C00B210BDC04680011A4090021A40034A1368802109060B4313607047C04680021A40014B1A681A60704765
:4009400010021A4010B5164B1A8812B2154B19880CB2604392028418134B9C420BDDC823DB031B1BD817000FC0180011C000552100F0F2F80AE0A0239B03E318D817000F8F
:40098000C0180011C000372100F0E6F823188022120294466344D817000CC018001410BD66F1FF0F64F1FF0FFFFF0E00014B98677047C0460000002010B5041C00F0C2F8B7
:4009C000044A1168044B0B40A4051C43146000F0BDF810BD0CE400E0FFFF3FFF8022D201014B1A607047C04600E100E08022D201014B1A607047C04680E100E010B5041CC5
:400A0000FFF7F4FF201CFFF7D1FF0320FFF7D4FFFFF7E4FF10BDC046024A117880230B431370704773000F40014B18707047C04683000F40014B1878C0B2704763000F4057
:400A4000014B18807047C04644100F40014B188880B2704784100F40014B18807047C04604100F4008B501E0FFF7F0FFFFF7E2FF0307F9D408BDC04610B50B4C201CFFF72C
:400A8000DFFF201CFFF7E8FF00F05CF8074A117810230B43137000F059F8FFF7E3FF0020FFF7C2FF10BDC046BF5D000093000F4008B5064B1B78002B04D1FFF7DDFF0122C6
:400AC000024B1A70FFF7A8FF08BDC04625010020014B18647047C0460000002010B5041C00F030F8044A1368C0218B43A4011C43146000F02BF810BD00E400E00122014BCC
:400B00001A60704700E100E00122014B1A60704780E100E010B5041CFFF7F6FF201CFFF7D7FF0320FFF7DAFFFFF7E8FF10BDC0460230800804D0C0460138FDD1C046C046C1
:400B4000C0467047EFF3108072B6704780F310887047C046C046C04603460B437FD4002243088B4274D303098B425FD3030A8B4244D3030B8B4228D3030C8B420DD3FF2279
:400B8000090212BA030C8B4202D31212090265D0030B8B4219D300E0090AC30B8B4201D3CB03C01A5241830B8B4201D38B03C01A5241430B8B4201D34B03C01A5241030B03
:400BC0008B4201D30B03C01A5241C30A8B4201D3CB02C01A5241830A8B4201D38B02C01A5241430A8B4201D34B02C01A5241030A8B4201D30B02C01A5241CDD2C3098B4201
:400C000001D3CB01C01A524183098B4201D38B01C01A524143098B4201D34B01C01A524103098B4201D30B01C01A5241C3088B4201D3CB00C01A524183088B4201D38B005A
:400C4000C01A524143088B4201D34B00C01A5241411A00D201465241104670475DE0CA0F00D04942031000D34042534000229C4603098B422DD3030A8B4212D3FC2289019F
:400C800012BA030A8B420CD3890192118B4208D3890192118B4204D389013AD0921100E08909C3098B4201D3CB01C01A524183098B4201D38B01C01A524143098B4201D3A7
:400CC0004B01C01A524103098B4201D30B01C01A5241C3088B4201D3CB00C01A524183088B4201D38B00C01A5241D9D243088B4201D34B00C01A5241411A00D201466346E1
:400D000052415B10104601D34042002B00D54942704763465B1000D3404201B5002000F00BF802BD0029F8D003B5FFF715FF0EBC4243891A1847C0467047C0460E4B70B591
:400D400000251E1C0D4CE41AA410A54204D0AB00F35898470135F8E700F0AEF8084B00251E1C084CE41AA410A54204D0AB00F35898470135F8E770BDC40E0000C40E0000A0
:400D8000C40E0000CC0E0000031C8218934202D019700133FAE770470000000000300F40000400400F40000401000F4004300F4003310F4033320F4016330F4005400F4086
:400DC00002410F4002600F40830DB601BE40D804DF011F808F10E210404549FF4AFF4BFF4F0150185A045D095F016040624064406540668068806A806C806E808E01920104
:400E0000B001B401BE01C054C5ECC720C823C9FFCAFFCBFFCD83CE03CF01D018D280D401D804DA04DB04DC09DD99DF01E040E240E440E540E680E880EA80EC80EE80020226
:400E40000B401A401B104101468049054B404E025101520259055A4072807340A710AF80C001C208D081D218D60B63026F088F08D640DA80AF01EE100201110103040506E9
:400E80000708090A0B0C0E0F101112131415161718191B1C1D1E1F2021222325262728292A2B2E2F3031323334350000000400000004000073700000F8B5C046F8BC08BC3E
:400EC0009E4670478D010000B5020000F8B5C046F8BC08BC9E46704765010000F00E0000C8000020180000005800000000000000000000000000E02EC05D0000180000004D
:400F000000366E0104040400000000000000000000000000000000000000000000000000000000000000000000000000000000000000000000000000000000000000000000
:400F40000000000000000000000000000000000000000000000000000000000000000000000000000000000000000000000000000000000000000000000000000000000071
:400F80000000000000000000000000000000000000000000000000000000000000000000000000000000000000000000000000000000000000000000000000000000000031
:400FC00000000000000000000000000000000000000000000000000000000000000000000000000000000000000000000000000000000000000000000000000000000000F1
:4010000000000000000000000000000000000000000000000000000000000000000000000000000000000000000000000000000000000000000000000000000000000000B0
:0200000490303A
:02000000FE9F61
:0200000490402A
:200000000000000000000000000000000000000000000000000000000000000000000000E0
:0200000490501A
:0C000000000204C81193110104CD10325D
:0200000490600A
:0100000001FE
:00000001FF