:400000000010002011000000090400000904000080B500AF00F026FA80B500AF124B124A12688021C9020A431A60302000F004FF0E4B0F4A1A600F4B10221A600E4B202217
:400040001A600E4B822212061A60074B802212031A600B4B0B4A1A600B4B0C4A1A600C4B00221A60BD4680BD00010B4004010B40060000801C0202402002024008010B403C
:40008000000002401D000080400002402F0000800C020B4080B582B000AF72B6FB1D00221A7023E0FB1D1A78131C5B009B185B00344A9B183B603B681A78597809020A4366
:4000C000997809040A43DB781B061343191C3B681A795B791B0213439BB2081C191C00F03FFAFB1D1A78FB1D01321A70FB1D1B78012BD7D9244A254B101C191C00F040FADB
:40010000234B244A1A60244BEE2212021A60234B992212041A60224BC02292041A60214B992212041A60204A1F4B1B78DBB202210B43DBB213701D4A1C4B1B78DBB23C21CD
:400140008B43DBB214210B43DBB21370164A164B1B78DBB216210B43DBB21370144B34221A60144B144A1A60144B10221A60144BD82212011A60FFF74FFF00F041FABD4652
:4001800002B080BD1C1E0000281E0000401E000000000140000307000C00014000500F4008500F4030500F4000700F4001700F4000000440080004408001030018000440D6
:4001C0000803044010B5064C2378002B07D1054B002B02D0044800E000BF0123237010BD5001002000000000C01D000008B5084B002B03D00748084900E000BF07480368EA
:40020000002B00D108BD064B002BFBD09847F9E700000000C01D000054010020C80000200000000080B500AF0A4B1B685A1C094B1A60084B1A68FA239B009A4204D900F087
:4002400079FB044B00221A60012000F021FDBD4680BDC0467001002080B582B000AF1E4B1B687B607B68012213401DD01B4B1B683B603B68012213400DD0002000F032FB3F
:40028000031C1A1C164B1A80154B1B889BB21BB2181C00F0C7FC134B3A681A60124B1B6801221A43104B1A607B68102213400CD0012000F017FB031C1A1C094B5A800A4BFC
:4002C0001B6810221A43084B1A60084B7A681A60BD4602B080BDC0461C021A403C021A408801002030021A406C01002010021A4090B5C3B000AFFB1DFF3300221A8000F0DD
:40030000DDFB00F00BFC00F009FC384B181C00F0D9FB00F003FC00F057FC0120182100F08FFC00F07DF900F0CFFA314B181C00F015FD304B181C00F0B7FC62B62E4B1B6840
:400340000122134012D02C4B1B68012293431A1C294B1A60294B1B889BB2FC1DFF341BB20020191C00F0F4FA031C2380224B1B681022134039D0204B1B68102293431A1CF2
:400380001D4B1A607B1DFF331C4A52881A807B1DFF3300229B5E181C00F03AFB031C7A1CFF3213607B1CFF331B689BB21BB2391D134A081C111C1A1C01F002F93B1D181C08
:4003C00000F080FB00F0AAFBFB1DFF331B881C1C3A1D0C4B101C191C221C01F0F1F83B1D181C00F06FFB00F099FBA7E7C41D000059020000250200006C0100208801002020
:40040000E81D0000001E000080B500AFFEE7C04680B584B000AF7860104B1A687B68D3181A1C0F4BD21A80235B009A4209DC0B4B1B68FB60094B1A687B68D218074B1A6051
:4004400007E001F07FF8031C0C221A6001235B42FB60FB68181CBD4604B080BDCC000020A001002080B586B000AF224B7B61224B3B61204B7B6135E03B691B68FB603B6924
:400480005B68BB603B699B683B6000237B600CE0FB681A68BB681A60BB680433BB60FB680433FB607B6804337B607A683B689A42EED13B69DB683B6000237B6008E0BB68A6
:4004C00000221A60BB680433BB607B6804337B607A683B689A42F2D13B6910333B617B69013B7B617B69002BC6D101F031F8FFF7FFFEFEE701000000001F000080B582B034
:4005000000AF00237B600FE07B68032B04D8104B7A689200D35800E00E4B0F4A796889008B507B6801337B607B682F2BECD9FFF7B1FD0A4B00221A608023DB058022D205DC
:40054000126801210A431A60BD4602B080BDC046000000000904000000000020C000002080B582B000AF786039607A683B68101C00211A1C01F01BF8BD4602B080BDC04688
:4005800080B586B000AF7860396000233B6100237B612FE07B699B007A68D3181B68BB600F23FB18BA681A70BB68FF229343BB6018E03B695B003A68D3181B781A1CBB6863
:4005C000D318191C3B695B003A68D3185B780B703B6901333B610F23FB181A780F23FB18013A1A700F23FB181B78002BE1D17B6901337B617B69052BCCD9BD4606B080BD54
:4006000080B500AF044BB02212031A60034BB02212031A60BD4680BD00031A4040031A4080B500AF064B1B78002B04D100F00AF8034B01221A7000F033F9BD4680BDC04626
:400640007401002080B584B000AF0E20032100F00BFD754B0E20191C00F0E0FC734B01221A60734B1B68002B01DA724900E07249724B724A12680A431A60714B714A1A60F1
:40068000714B724A1A60724B8022D2051A60714B714A1A60714B704A1A60714B704A1268802149020A431A606E4B6E4A1268802149020A431A606C4B00221A606B4B00224B
:4006C0001A606B4B11221A606A4B02221A606A4B1B687B607B68694A13407B607B68012213437B60644B7A681A600023FB6094E0634BFA689200D258DC239B0113407B602A
:40070000604AFB68D3181B781A1C7B6813437B60FB68002B29D1FB689B005B4A944663447A681A60564BFA689200D3580122134009D04D4B4C4A1268F96801208840011CBE
:4007400089B20A431A604E4BFA689200D358022213402AD0454B454A1268F96801208840011C89B20A431A601FE0484B7A688021C9050A431A60424BFA689200D3580122D3
:40078000134005D03A4B3A4A126820210A431A603B4BFA689200D3580222134005D0344B334A126840210A431A60354BFA689200D25880239B00134003D08023DB00BB605C
:4007C00002E080235B01BB602D4BFA689200D25880235B00134005D12D4BFA6852000021D15204E02A4BFA6852000021D152BB68284A53438022D20094466344002B02DA58
:40080000254A94466344DB129BB219B2234BFA689200D150FB680133FB60FB68012B00D866E7BD4604B080BDF509000020001A4080031A40402010134020001300001A4001
:4008400004001A40CD00008018001A400000FF0F1C001A4010001A400400040014001A4000031A4040031A4028021A4038021A4018021A40000F1A4030001A40FFFFFFDFA2
:40088000681E0000701E000080001A4080021A408C01002010270000FF0700009001002080B500AF074B1B68002B09DB054B054A1268802109060A431A600A2000F032FC33
:4008C000BD4680BD00001A4080B500AF044B044A1268802149020A431A60BD4680BDC04604001A4080B584B000AF78607B68012B02D9002000F00CFC7B68002B09D17B684F
:400900009B000A4A944663441B681B041B0CFB6004E0074B1B681B041B0CFB60FB689BB21BB2181CBD4604B080BDC04680011A4090021A4080B500AF044B044A12688021BB
:4009400009060A431A60BD4680BDC04680021A4080B584B000AF78600A1CBB1C1A807B68012B02D9002000F0D3FB1F4B7A685200D35A99B2BB1C1A888BB2D31A9AB2BB1C54
:400980001A80BB1C00229B5E184A5A43BB1C00215B5E002B08DD164B79688900CB58002B00DA01335B1008E0114B79688900CB58002B00DA01335B105B42D1180C4B7A6825
:4009C0009200D358081C191C00F0CAFC031C1A1C0E23FB181A800E23FB181B881BB2181CBD4604B080BDC0468C010020102700009001002080B582B000AF044B1B687B60BE
:400A0000024B7A681A60BD4602B080BD10021A4080B588B000AF7860244B1B889BB29BB21BB2BB61224B1B889BB29BB21BB27B617B687A695A43BB699B02D3183B613B6984
:400A40001C4A93420EDD3B69C822D203D31A00D50F331B11DB00181C552100F081FC031CFB610FE03B69A022920394466344002B00DA0F331B11DB00181C372100F070FCAF
:400A8000031CFB613A69FB69D3188022120294466344FB60FB68002B02DA074A944663441B14181CBD4608B080BDC04666F1FF0F64F1FF0FFFFF0E00FFFF000080B500AFE4
:400AC000BD4680BD80B584B000AF78600F23FB1801221A700E23FB187A6812781A7015E00E23FB181B78181C00F03AFB0F23FB181B787A68D2180E23FB1812781A700F2347
:400B0000FB181A780F23FB1801321A700E23FB181B78002BE4D1BD4604B080BD80B500AF0D2000F01DFB0A2000F01AFBBD4680BD80B500AF134B8022D2041A60114B114AF0
:400B40001268802149020A431A6080231B01181C00F04CF80B4B0B4A12681A600A4B0C221A60012000F088F8084B1C221A6080231B01181C00F048F8002000F053F8BD4668
:400B800080BDC04600010540240105402801054090B583B000AFFC1D00F044F9031C2370084B084A126801210A431A60FB1D1B78181C00F03BF90120182100F041F8BD4624
:400BC00003B090BD0000054080B500AF064B1B78002B04D1FFF7ACFF034B01221A70FFF7D7FFBD4680BDC0467C01002080B582B000AF7860034B7A681204120C1A60BD46CE
:400C000002B080BD0801054080B582B000AF7860034B7A681204120C1A60BD4602B080BD1401054080B582B000AF7860034B7A681204120C1A60BD4602B080BD0C0105404F
:400C400090B585B000AF786039600F23FC1800F0E9F8031C2370074B3A68796891400A1C1A600F23FB181B78181C00F0DFF8BD4605B090BD0800054080B582B000AF7860B8
:400C8000024B7A681A60BD4602B080BD3801054080B582B000AF7860024B7A681A60BD4602B080BD3001054080B582B000AF786000F04AF87B68181C00F008F8032000F0E2
:400CC00013F800F037F8BD4602B080BD80B582B000AF7860034B80217A685A50BD4602B080BDC0460000002090B585B000AF021CFB1D1A700623FB600B23FC1800F092F82E
:400D0000031C23700A4B0A4A1268C0218A43111CFA1D1078FA689040021C0A431A600B23FB181B78181C00F081F8BD4605B090BD10E400E080B500AF024B802252021A6062
:400D4000BD4680BD00E100E080B500AF024B802252021A60BD4680BD80E100E080B582B000AF786000F04AF87B68181C00F008F8032000F011F800F037F8BD4602B080BDFC
:400D800080B582B000AF7860024B7A689A67BD4602B080BD0000002090B585B000AF021CFB1D1A701623FB600B23FC1800F03AF8031C23700A4B0A4A12680A491140FA1D92
:400DC0001078FA689040021C0A431A600B23FB181B78181C00F02AF8BD4605B090BDC0460CE400E0FFFF3FFF80B500AF024B8022D2011A60BD4680BD00E100E080B500AF1E
:400E0000024B8022D2011A60BD4680BD80E100E00230800804D0C0460138FDD1C046C046C0467047EFF3108072B6704780F310887047C046C046C04690B585B000AF78606B
:400E40000C23FC18FFF7EEFF031C23707B68022B00D8B0E07B68302B00D9ACE05C4B1B78DBB21A1E7B689A420AD35A4A0F23FB1812781A70584A0E23FB1812781A703FE0CE
:400E8000564B1B78DBB21A1E7B689A420AD3544A0F23FB1812781A70524A0E23FB1812781A702DE0504B1B78DBB21A1E7B689A420AD34E4A0F23FB1812781A704C4A0E235E
:400EC000FB1812781A701BE04A4B1B78DBB21A1E7B689A420AD3484A0F23FB1812781A70464A0E23FB1812781A7009E0444A0F23FB1812781A70434A0E23FB1812781A70BF
:400F00007B68DA1E0B23FB183F498A5C1A700B23FB181B782F2B0DD97B682A2B0AD93B4B19221A600520FFF773FF0D23FB1819221A7007E0354B1B68DAB20D23FB183F2185
:400F40000A401A700B23FA180D23FB1812781B789A4208D22D4B7A68033A2B498A5C1A600520FFF755FF2A4B7A6826498C4662441278D2B21A60274B0F22BA1812781A602E
:400F8000254B0E22BA1812781A60052000F0CAF80B23FA180D23FB1812781B789A4209D91A4B7A68033A18498A5C1A600520FFF72FFF03E002E0002000F0AAF80C23FB183F
:400FC0001B78181CFFF732FFBD4605B090BDC046C0F1FF0FC1F1FF0FC2F1FF0FC3F1FF0FC4F1FF0FC5F1FF0FC6F1FF0FC7F1FF0FC8F1FF0FC9F1FF0FCAF1FF0FCBF1FF0FC2
:40100000CCF1FF0FCDF1FF0F741E00002CFF0B4028FF0B401CFF0B4020FF0B4080B584B000AF021C3960FB1D1A7080239B05FB60FB1D1B781F2B02D9002000F069F8FB1D67
:401040001B7810339B00FA68D3181B68BB60FB1D1B7810339B00FA68D3183A681A60BB68181CBD4604B080BD90B587B000AF021CFB1D1A70BB1D0A1C1A70BB1D1B78032BCB
:4010800002D9002000F044F8FB1D1B781F2B02D9002000F03DF8FB1D1B7803221340DB0006337B611323FC18FFF7BCFE031C2370FB1D1B789B08DBB29B00144A94466344E0
:4010C0001B68FB607B6903229A40131CDA43FB681340FB60BB1D1A787B699A40131CFA681343FB60FB1D1B789B08DBB29B00074A94466344FA681A601323FB181B78181C34
:40110000FFF794FEBD4607B090BDC04600E400E080B582B000AF021CFB1D1A7001BEBD4602B080BD80B582B000AF021CBB1D1A80BB1D1B88044A12785343181CFFF768FEB0
:40114000BD4602B080BDC046E00000200000000000000000000000000000000000000000FEB5494652465B460EB407462E4909688A462E4A12682E48022100F061F803005E
:401180002A480068C0182A4900F05AF806001F3EB346234A126801219140C9430C0001250026FFF73FFE814651460B6823400B6058460430FFF72CFE3800F04028409040CA
:4011C0000B68234003430B605846FFF721FE0136072EF1D900200130012090400B68234003430B6058460630FFF712FE4846FFF71DFEC046C046C0460EBC894692469B46D9
:40120000FEBDC046C046C046C046C046C046C046C046C046C046C046C046C046C046C046D000002078010020D4000020D800002000C20100C046C046C046C046C046C0463D
:40124000002243088B4274D303098B425FD3030A8B4244D3030B8B4228D3030C8B420DD3FF22090212BA030C8B4202D31212090265D0030B8B4219D300E0090AC30B8B42FD
:4012800001D3CB03C01A5241830B8B4201D38B03C01A5241430B8B4201D34B03C01A5241030B8B4201D30B03C01A5241C30A8B4201D3CB02C01A5241830A8B4201D38B02BE
:4012C000C01A5241430A8B4201D34B02C01A5241030A8B4201D30B02C01A5241CDD2C3098B4201D3CB01C01A524183098B4201D38B01C01A524143098B4201D34B01C01A33
:40130000524103098B4201D30B01C01A5241C3088B4201D3CB00C01A524183088B4201D38B00C01A524143088B4201D34B00C01A5241411A00D20146524110467047FFE78E
:4013400001B5002000F0FCF802BDC0460029F7D003B5FFF775FF0EBC4243891A1847C04603460B437FD4002243088B4274D303098B425FD3030A8B4244D3030B8B4228D348
:40138000030C8B420DD3FF22090212BA030C8B4202D31212090265D0030B8B4219D300E0090AC30B8B4201D3CB03C01A5241830B8B4201D38B03C01A5241430B8B4201D3E7
:4013C0004B03C01A5241030B8B4201D30B03C01A5241C30A8B4201D3CB02C01A5241830A8B4201D38B02C01A5241430A8B4201D34B02C01A5241030A8B4201D30B02C01AFB
:401400005241CDD2C3098B4201D3CB01C01A524183098B4201D38B01C01A524143098B4201D34B01C01A524103098B4201D30B01C01A5241C3088B4201D3CB00C01A52413E
:4014400083088B4201D38B00C01A524143088B4201D34B00C01A5241411A00D201465241104670475DE0CA0F00D04942031000D34042534000229C4603098B422DD3030A3A
:401480008B4212D3FC22890112BA030A8B420CD3890192118B4208D3890192118B4204D389013AD0921100E08909C3098B4201D3CB01C01A524183098B4201D38B01C01AC5
:4014C000524143098B4201D34B01C01A524103098B4201D30B01C01A5241C3088B4201D3CB00C01A524183088B4201D38B00C01A5241D9D243088B4201D34B00C01A524176
:40150000411A00D20146634652415B10104601D34042002B00D54942704763465B1000D3404201B5002000F00BF802BD0029F8D003B5FFF715FF0EBC4243891A1847C046A7
:401540007047C046014B18687047C046480100200E4B70B500251E1C0D4CE41AA410A54204D0AB00F35898470135F8E700F0B6FC084B00251E1C084CE41AA410A54204D01A
:40158000AB00F35898470135F8E770BDE81E0000E81E0000E81E0000F01E0000002310B5934203D0CC5CC4540133F9E710BD031C8218934202D019700133FAE7704700008E
:4015C0000EB410B59DB002A9029008610B48822488604861012040421FABC881084804CBA400006801938C8100F06CF80023029A13701DB010BC08BC03B01847FFFFFF7FE4
:4016000048010020F0B58E6885B0071C0C1C03920193B34245D390238A89DB001A423DD003250969236801985B1A029363695D43EB0F5D19029B6D1001331B189D4200D210
:401640001D1C381C53050FD5291C00F01DFB061E13D0029A2169FFF7A1FFA289184B134080221343A38111E02A1C00F065FB061E0CD1381C216900F0C1FA0C2340220120D1
:401680003B60A38940421343A38117E0029B2661F61826606561019EED1AA560019BB34200D2019E321C2068039900F092FA0020A3689B1BA36023689E19266005B0F0BD49
:4016C0007FFBFFFFF0B59FB0029005938B890E1C171C1B0610D50B69002B0DD1402100F0D3FA30603061002804D10C23029A01381360D0E040237361002306AD6B612033D1
:401700006B761033AB763C1C2378002B03D1E31B049312D003E0252BF9D00134F4E7049B0298311C3A1CFFF76DFF431C00D1ACE06A69049B944663446B612378002B00D19F
:40174000A3E00122002352426A6002A95432521801342B60EB60AB601370AB654F4F2178381C052200F02AFA002808D0C01B01278740381C2B68013418432860EEE72B6807
:40178000DA0604D55322202102A8121811701A0704D553222B2102A81218117022782A2A01D0099B0EE0059A111D12680591002A01DB099204E05242EA60022213432B60BF
:4017C000013409E02278303A092A04D80A214B4301349B18F6E7099323782E2B18D163782A2B09D1059B02341A1D1B680592002B0DDA01235B420AE0002301342278303A77
:40180000092A04D80A214B4301349B18F6E70793234F2178381C032200F0D0F9002807D0C01B40278740381C2B6801341843286021781C480622671C297600F0BFF9002826
:4018400012D0194B002B06D10722059B073393430833059314E005AB00930298291C321C124B00E000BF07E005AB00930298291C321C0E4B00F08AF80390039B013304D0B9
:401880006B69039A9B186B613DE7B3890B985B0601D5012040421FB0F0BDC046A61E0000AC1E0000B01E00000000000005160000F7B5171C01930A698B6800900C1C9342FC
:4018C00000DA131C221C3B6043321278002A01D001333B6023689B0602D53B6802333B60062523681D401ED0231C43331B785A1E9341226892061CD53020E1184031C8702D
:40190000211C5A1C45310978A21840320233D1700FE0221C0123009801991932089EB047431C0ED00135E3683A689B1A9D42F0DBDAE7221C009801994332089DA847431C98
:4019400002D10120404220E006232068E1683A6803400025042B03D18D1AEB43DB171D40A3682269934201DD9B1AED180027AF420ADA221C0123009801991A32089EB0474A
:40198000431CDED00137F2E70020FEBDF0B58BB006920A1C43320793059004920A7E0C1C109B6E2A00D1A8E011D8632A22D009D8002A00D1B2E0582A00D0C2E045310A7050
:4019C0007C4A4FE0642A1DD0692A1BD0B9E0732A00D1A7E009D86F2A29D0702A00D0B0E0202209680A43226037E0752A1FD0782A33D0A6E00E1C1A684236111D1960136866
:401A00003370A1E021681A68080606D4490604D5111D19600023D55E02E0111D19601568002D3BDA2D23049A6D42137036E021681A68080606D4490604D51568111D1960AD
:401A4000ADB202E0111D196015685A4B227E03930A276F2A1DD108271BE0221C782145321170554A19680392081D226818600D68100602D4500600D5ADB2D30702D52023BA
:401A80001A4322601027002D03D1202322689A432260231C002243331A7002E00A27454B03936368A360002B03DB0422216891432160002D02D1049E002B0ED0049E281CDD
:401AC000391CFFF743FC039B013E5B5C281C3370391CFFF7B5FB051EF1D1082F09D12368DB0706D563682269934202DC3023013E3370049B9B1B23612BE009681A68080685
:401B000007D4490605D5111D19601368A28A1A8004E0111D1960136862691A600023049E236116E01A68111D196016680021301C626800F043F8002801D0801B6060636807
:401B400003E0261C42363270012323610023049A1370079B05980093211C069B09AAFFF7A7FE431C02D10120404221E0236905980699321C079DA847431CF4D023689B076D
:401B800005D4099BE068984212DA181C10E00025E368099A9B1A9D42F3DA221C0123059806991932079EB047431CDCD00135EFE70BB0F0BDB71E0000C81E0000C9B282182E
:401BC000904204D003788B4202D00130F8E70020704710B5814208D28B18984205D29B1A013A09D3995C8154FAE70023934203D0CC5CC4540133F9E710BD000030B5002917
:401C00003ED004390B68002B00DAC9181D4A1368141C002B02D14B60116031E099420DD208680A189A4203D11368C3180B6053684B60216024E08A4203D8131C5A68002A59
:401C4000F9D11D685C198C420BD10968691858181960904214D110685268091819605A600EE08C4202D90C23036009E008680C18944203D114685268001908604A60596074
:401C800030BDC04684010020032370B5CC1C9C430834051C0C2C01D20C2405E0002C03DA0C2300202B6042E08C42F9D3204A1368101C191C002913D00A68121B0DD40B2A57
:401CC00002D90A608B181FE08B4202D15A6802601BE04A685A600B1C17E00B1C4968E9E7144E3368002B03D1281C00F04BF83060281C211C00F046F8031C421CD0D0032218
:401D0000C61C964386420AD11C60181C07210B301A1D8843821A0AD05142995007E0311A281C00F02FF8431CBAD0331CECE770BD8401002080010020F8B5061C0C1C151C0B
:401D4000002904D1111CFFF79FFF041C18E0002A03D1FFF753FF2C1C12E000F025F8A8420ED2301C291CFFF78FFF071E07D0211C2A1CFFF713FC301C211CFFF73FFF3C1C87
:401D8000201CF8BD38B50023064C051C081C2360FEF73EFB431C03D12368002B00D02B6038BDC046980100200B1F1A68101F002A04DA891804390B68D018043870470000D3
:401DC000000000005374617274696E672074656D7065726174757265206D6561737572656D656E742E2E2E0054656D70657261747572652076616C75653A20256443000088
:401E0000414443206D6561737572656420766F6C746167653A2025646D56000000300F40000400400F40000404300F4002310F4001330F4006400F4002410F4004430F4051
:401E400030013E0158045F011B028702E280530467808740D420D880E2108B04970819088908C608E2010000020400000004000073700000030405060708090A0B0C0E0F05
:401E8000101112131415161718191B1C1D1E1F2021222325262728292A2B2E2F30313233343500004300232D302B2000686C4C006566674546470030313233343536373894
:401EC00039414243444546003031323334353637383961626364656600000000F8B5C046F8BC08BC9E467047ED010000FD040000F8B5C046F8BC08BC9E467047C501000071
:401F0000101F0000C8000020880000005000000000000000A0010020050000000000044000366E01C05D0000180000000000E02E00000000000000000000000000000000C0
:401F400000000000000000000000000000000000A41E000000000000000000000000000000000000000000000000000000000000000000000000000000000000000000009F
:401F800000000000000000000000000000000000E8000020000000000000000000000000000000000000000000000000000000000000000000000000000000000000000019
:401FC00000000000000000000000000000000000000000000000000000000000000000000000000000000000000000000000000000000000000000000000000000000000E1
:4020000000000000000000000000000000000000000000000000000000000000000000000000000000000000000000000000000000000000000000000000000000000000A0
:402040000000000000000000000000000000000000000000000000000000000000000000000000000000000000000000000000000000000000000000000000000000000060
:402080000000000000000000000000000000000000000000000000000000000000000000000000000000000000000000000000000000000000000000000000000000000020
:0200000490303A
:020000006C157D
:0200000490402A
:200000000000000000000000000000000000000000000000000000000000000000000000E0
:0200000490501A
:0C000000000204C81193110104D27DA875
:0200000490600A
:0100000001FE
:00000001FF